:0E10B9007F407E42EF1FAC0670011E4C70F6A9
:0110C7002206
:10100800EF1FAA0670011E4A600A7D6FAC051DEC31
:0410180060EE80F80E
:01101C0022B1
:08001B00120FF2120E8B80FEA1
:041128007590552247
:0C1109007590551210B97590FF0210B9D6
:1000030075907E1210B97590C31210B97590E712EE
:0800130010B9E4F5900210B9E8
:100F4D00EF64014E70035390FEEF64024E70035335
:100F5D0090FDEF64034E70035390FBEF64044E70ED
:100F6D00035390F7EF64054E70035390EFEF640653
:100F7D004E70035390DFEF64074E70035390BFEF35
:090F8D0064084E700353907F22AA
:100EFD00EE704CEF14B408005045900F1575F003CB
:100F0D00A4C58325F0C58373020F2D020F31020F87
:100F1D0035020F39020F3D020F41020F45020F49F5
:100F2D0043900122439002224390042243900822D1
:100F3D0043901022439020224390402243908022E0
:10076900E4F511F512C290D291D292D293D294D2D9
:1007790095D296D2977F1E7E00121008D290C29110
:10078900D292D293D294D295D296D2977F1E7E00DE
:10079900121008D290D291C292D293D294D295D209
:1007A90096D2977F1E7E00121008D290D291D292D3
:1007B900C293D294D295D296D2977F1E7E00121000
:1007C90008D290D291D292D293C294D295D296D293
:1007D900977F1E7E00121008D290D291D292D293A6
:1007E900D294C295D296D2977F1E7E00121008D25B
:1007F90090D291D292D293D294D295C296D2977F27
:100809001E7E00121008D290D291D292D293D29425
:10081900D295D296C2977F1E7E001210080512E566
:100829001270020511C39405E51164809480500388
:1008390002076EE4F511F512D290D291D292D293B9
:10084900D294D295D296D2977FC87E00121008C250
:1008590090C291C292C293C294C295C296C2977F26
:10086900C87E001210080512E51270020511C39422
:0908790002E5116480948040BF87
:010882002253
:10039400E4F511F512F511F512C290D291D292D270
:1003A40093D294D295D296D2977F1E7E00121008D3
:1003B400D290C291D292D293D294D295D296D2971D
:1003C4007F1E7E00121008D290D291C292D293D294
:1003D40094D295D296D2977F1E7E00121008D290A6
:1003E400D291D292C293D294D295D296D2977F1EB2
:1003F4007E00121008D290D291D292D293C294D29B
:1004040095D296D2977F1E7E00121008D290D29178
:10041400D292D293D294C295D296D2977F1E7E0066
:10042400121008D290D291D292D293D294D295C281
:1004340096D2977F1E7E00121008D290D291D2924B
:10044400D293D294D295D296C2977F1E7E00121078
:10045400080512E51270020511C3940FE5116480BA
:100464009480500302039DE4F511F512D290D291C9
:10047400D292D293D294D295D296D2977FC87E004C
:10048400121008C290C291C292C293C294C295C281
:1004940096C2977FC87E001210080512E5127002FA
:1004A4000511C39405E5116480948040BFE4F511FF
:1004B400F512D290C291D292C293D294C295D2969E
:1004C400C2977FC87E00121008C290D291C292D205
:1004D40093C294D295C296D2977FC87E0012100818
:1004E4000512E51270020511C39405E511648094A8
:1004F4008040BFE4F511F512C290D291D292D2930A
:10050400D294D295D296C2977F647E00121008D2FC
:1005140090C291D292D293D294D295C296D2977F1E
:10052400647E00121008D290D291C292D293D294D7
:10053400C295D296D2977F647E00121008D290D2D0
:1005440091D292C293C294D295D296D2977F647E6E
:10055400001210080512E51270020511C39405E596
:1005640011648094804091E4F511F512C290C29117
:10057400D292D293D294D295C296C2977F647E00CF
:10058400121008D290C291C292D293D294C295C250
:1005940096D2977F647E00121008D290D291C292B4
:1005A400C293C294C295D296D2977F647E001210F1
:1005B40008D290D291D292C293C294D295D296D2BA
:1005C400977F647E001210080512E512700205116F
:0B05D400C39405E51164809480409101
:0105DF0022F9
:041066000213000071
:10101D00EF1FAA0670011E4A600A7D6FAC051DEC1C
:04102D0060EE80F8F9
:01103100229C
:03112C00C2A32239
:03112F00D2A32226
:03113200B2A32243
:10104400C2A3E4F5907FC8FE12101DD2A37590FFD1
:011054002279
:10105500C2A3120769D2A37590FF7FE87E03021031
:011065001D6D
:100F9600759003C2A37FC87E0012101DE4F513F5F9
:100FA60014AF907801EF08800123D8FDF5907FC833
:100FB6007E0012101D0514E51470020513C3940774
:100FC600E5136480948040D9D2A37590FF7FE87EB4
:040FD6000302101DE5
:101077007F057E0012100820B00375905530B0FD33
:011087002246
:101099007F057E0012100820B102C2A330B1FD22E3
:1010A9007F057E0012100820B202D2A330B2FD22C1
:101088007F057E0012100820B3037590FF30B3FD72
:011098002235
:1005E000E4F51975B0FFC2B320B7137F14FE1210E3
:1005F0000830B7FD7F147E0012100875191020B660
:10060000147F147E0012100830B6FD7F147E001295
:10061000100875190F20B5147F147E0012100830D1
:10062000B5FD7F147E0012100875190E20B4147FDA
:10063000147E0012100830B4FD7F147E00121008E2
:1006400075190D75B0FFC2B220B7147F147E001269
:10065000100830B7FD7F147E0012100875190C20A9
:10066000B6147F147E0012100830B6FD7F147E0091
:1006700012100875190B20B5147F147E0012100893
:1006800030B5FD7F147E0012100875190A20B414CD
:100690007F147E0012100830B4FD7F147E0012100B
:1006A0000875190975B0FFC2B120B7147F147E0018
:1006B00012100830B7FD7F147E001210087519085B
:1006C00020B6147F147E0012100830B6FD7F147E11
:1006D0000012100875190720B5147F147E0012103F
:1006E0000830B5FD7F147E0012100875190620B47D
:1006F000147F147E0012100830B4FD7F147E0012A7
:10070000100875190575B0FFC2B020B7147F147EAC
:100710000012100830B7FD7F147E00121008751902
:100720000420B6147F147E0012100830B6FD7F142A
:100730007E0012100875190320B5147F147E001274
:10074000100830B5FD7F147E0012100875190220C4
:10075000B4147F147E0012100830B4FD7F147E00A4
:08076000121008751901AF1910
:01076800226E
:05002600E4F508F509F6
:10002B001205E0750A008F0BE50B6401450A70148D
:10003B00C2A37F2C7E01121008D2A37F2C7E01124B
:10004B00100880DCE50B6402450A702DF508F509F4
:10005B00C3E5099402E5086480948050C3C2A37F72
:10006B002C7E01121008D2A37F2C7E0112100805E2
:10007B0009E50970DB050880D7E50B6403450A70B9
:10008B002DF508F509C3E5099403E5086480948010
:10009B00508EC2A37F2C7E01121008D2A37F2C7E20
:1000AB00011210080509E50970DB050880D7E50B7F
:1000BB006404450A7030F508F509C3E5099404E5B5
:1000CB000864809480400302002BC2A37F2C7E0126
:1000DB00121008D2A37F2C7E011210080509E50926
:1000EB0070D8050880D4E50B6405450A7030F50817
:1000FB00F509C3E5099405E5086480948040030283
:10010B00002BC2A37F2C7E01121008D2A37F2C7E62
:10011B00011210080509E50970D8050880D4E50B14
:10012B006406450A7030F508F509C3E5099406E540
:10013B000864809480400302002BC2A37F2C7E01B5
:10014B00121008D2A37F2C7E011210080509E509B5
:10015B0070D8050880D4E50B6407450A7030F508A4
:10016B00F509C3E5099407E5086480948040030210
:10017B00002BC2A37F2C7E01121008D2A37F2C7EF2
:10018B00011210080509E50970D8050880D4E50BA4
:10019B006408450A7030F508F509C3E5099408E5CC
:1001AB000864809480400302002BC2A37F2C7E0145
:1001BB00121008D2A37F2C7E011210080509E50945
:1001CB0070D8050880D4E50B6409450A7030F50832
:1001DB00F509C3E5099409E508648094804003029E
:1001EB00002BC2A37F2C7E01121008D2A37F2C7E82
:1001FB00011210080509E50970D8050880D4E50B34
:10020B00640A450A7030F508F509C3E509940AE557
:10021B000864809480400302002BC2A37F2C7E01D4
:10022B00121008D2A37F2C7E011210080509E509D4
:10023B0070D8050880D4E50B640B450A7030F508BF
:10024B00F509C3E509940BE508648094804003022B
:10025B00002BC2A37F2C7E01121008D2A37F2C7E11
:10026B00011210080509E50970D8050880D4E50BC3
:10027B00640C450A7030F508F509C3E509940CE5E3
:10028B000864809480400302002BC2A37F2C7E0164
:10029B00121008D2A37F2C7E011210080509E50964
:1002AB0070D8050880D4E50B640D450A7030F5084D
:1002BB00F509C3E509940DE50864809480400302B9
:1002CB00002BC2A37F2C7E01121008D2A37F2C7EA1
:1002DB00011210080509E50970D8050880D4E50B53
:1002EB00640E450A7030F508F509C3E509940EE56F
:1002FB000864809480400302002BC2A37F2C7E01F4
:10030B00121008D2A37F2C7E011210080509E509F3
:10031B0070D8050880D4E50B640F450A7030F508DA
:10032B00F509C3E509940FE5086480948040030246
:10033B00002BC2A37F2C7E01121008D2A37F2C7E30
:10034B00011210080509E50970D8050880D4E50BE2
:10035B006410450A600302002BF508F509C3E50993
:10036B009410E50864809480400302002BC2A37FA5
:10037B002C7E01121008D2A37F2C7E0112100805CF
:09038B0009E50970D8050880D4C9
:100FDA003F065B4F666D7D077F6F777C395E79715F
:080FEA007638373E735C4000CD
:100E1300D2A6758076C2A67580FFD2A77580FEC262
:100E2300A77F017E00121008D2A6758079C2A6752D
:100E330080FFD2A77580FDC2A77F017E0012100834
:100E4300D2A6758038C2A67580FFD2A77580FBC273
:100E5300A77F017E00121008D2A6758038C2A6753E
:100E630080FFD2A77580F7C2A77F017E001210080A
:100E7300D2A675803FC2A67580FFD2A77580EFC248
:080E8300A77F017E00021008A8
:10088300D2A6900FDCE493F580C2A67580FFD2A7B1
:100893007580FEC2A77F017E00121008D2A6900FBA
:1008A300DAE493F580C2A67580FFD2A77580FDC2F6
:1008B300A77F017E00121008D2A6900FDAE493F509
:1008C30080C2A67580FFD2A77580FBC2A77F017E79
:1008D30000121008D2A6900FDBE493F580C2A67530
:1008E30080FFD2A77580F7C2A77F017E0012100890
:1008F300D2A6900FDAE493F580C2A67580FFD2A743
:100903007580EFC2A77F017E00121008D2A6900F58
:10091300E1E493F580C2A67580FFD2A77580DFC29C
:10092300A77F017E00121008D2A6900FDBE493F597
:1009330080C2A67580FFD2A77580BFC2A77F017E44
:1009430000121008D2A6900FDDE493F580C2A675BD
:1009530080FFD2A775807FC2A77F017E00021008A7
:10096300D2A6900FDCE493F580C2A67580FFD2A7D0
:100973007580FEC2A77F017E00121008D2A6900FD9
:10098300DAE493F580C2A67580FFD2A77580FDC215
:10099300A77F017E00121008D2A6900FDAE493F528
:1009A30080C2A67580FFD2A77580FBC2A77F017E98
:1009B30000121008D2A6900FDAE493F580C2A67550
:1009C30080FFD2A77580F7C2A77F017E00121008AF
:1009D300D2A6900FDAE493F580C2A67580FFD2A762
:1009E3007580EFC2A77F017E00121008D2A6900F78
:1009F300DCE493F580C2A67580FFD2A77580DFC2C1
:100A0300A77F017E00121008D2A6900FDBE493F5B6
:100A130080C2A67580FFD2A77580BFC2A77F017E63
:100A230000121008D2A6900FDAE493F580C2A675DF
:100A330080FFD2A775807FC2A77F017E00021008C6
:100A4300D2A6900FF1E493F580C2A67580FFD2A7DA
:100A53007580FEC2A77F017E00121008D2A6900FF8
:100A6300F1E493F580C2A67580FFD2A77580FDC21D
:100A7300A77F017E00121008D2A6900FF1E493F530
:100A830080C2A67580FFD2A77580FBC2A77F017EB7
:100A930000121008D2A6900FF1E493F580C2A67558
:100AA30080FFD2A77580F7C2A77F017E00121008CE
:100AB300D2A6900FDAE493F580C2A67580FFD2A781
:100AC3007580EFC2A77F017E00121008D2A6900F97
:100AD300DCE493F580C2A67580FFD2A77580DFC2E0
:100AE300A77F017E00121008D2A6900FDDE493F5D4
:100AF30080C2A67580FFD2A77580BFC2A77F017E83
:100B030000121008D2A6900FDEE493F580C2A675FA
:100B130080FFD2A775807FC2A77F017E00021008E5
:100B2300D2A6900FF1E493F580C2A67580FFD2A7F9
:100B33007580FEC2A77F017E00121008D2A6900F17
:100B4300F1E493F580C2A67580FFD2A77580FDC23C
:100B5300A77F017E00121008D2A6900FF1E493F54F
:100B630080C2A67580FFD2A77580FBC2A77F017ED6
:100B730000121008D2A6900FF1E493F580C2A67577
:100B830080FFD2A77580F7C2A77F017E00121008ED
:100B9300D2A6900FF1E493F580C2A67580FFD2A789
:100BA3007580EFC2A77F017E00121008D2A6900FB6
:100BB300F1E493F580C2A67580FFD2A77580DFC2EA
:100BC300A77F017E00121008D2A6900FF1E493F5DF
:100BD30080C2A67580FFD2A77580BFC2A77F017EA2
:100BE30000121008D2A6900FF1E493F580C2A67507
:100BF30080FFD2A775807FC2A77F017E0002100805
:07111500D2A0C2A2D2A52264
:07111C00D2A4D2B7C2B62233
:0D10C800D2A0C2A2D2A5D2A4D2B7C2B62235
:0D10D500D2A0D2A2C2A5D2A4C2B7D2B62228
:0D10E200D2A0C2A2C2A5D2A4D2B7C2B6222B
:0D10EF00D2A0C2A2D2A5D2A4C2B7C2B6221E
:0D10FC00D2A0C2A2C2A5D2A4C2B7C2B62221
:100CCD00E4F515F51620B0187F057E0012100820EA
:100CDD00B0061210C812112830B003020D7680F83C
:100CED0020B1487F057E0012100820B1391210D5B1
:100CFD00C2A37F2C7E01121008D2A37F2C7E01127D
:100D0D001008C2A37F2C7E01121008D2A37F2C7E67
:100D1D0001121008C2A37F2C7E01121008D2A37FEE
:100D2D002C7E0112100820B14080FB20B2157F05EA
:100D3D007E0012100820B20675150075160120B23E
:100D4D002880FB20B3237F057E0012100820B316E8
:100D5D00E4F515F516120B231210FCC2A37FE87EE5
:100D6D0003121008D2A330B3FDE5166401451560DA
:0A0D7D0003020CD2120883020CD20C
:08106A00020C0000020E000060
:10103200758901E4F58A758CDCD28CC28DD2A9D275
:02104200AF22DB
:041072000217000061
:100FF200D2AFD2ACC29FD29ED29C758920758DFD94
:06100200758BFDD28E2269
:05112300AE17AF182219
:100E8B00121123EF640A4E7006120B23120E13126B
:100E9B001123EF640B4E7006120B231208831211F1
:100EAB0023EF640C4E7006120B23120963121123ED
:100EBB00EF640D4E7006120B23120A43121123EF2F
:100ECB00640E4E7006120B23120769121123EF6486
:100EDB000F4E7008120B23120394800D121123EF87
:100EEB004E70067590FF120B237F057E00121008C3
:020EFB00808EE7
:03002300020C03C9
:100C0300C0E0C0F0C083C082C0D075D000C000C0B7
:0D0C130001C002C003C004C005C006C00738
:100C2000751000209803020CADC298859910E5104C
:100C3000B40104C2A38071E510B4020512112F8023
:100C400067E510B40305121128805DE510B40405B2
:100C50007590FF8053E510B405051210C88049E572
:100C600010B406051210D5803FE510B40705121028
:100C7000E28035E510B408051210EF802BE510B4C2
:100C800009051210FC8021E510C3940A400FE510FD
:100C9000D3940F5008751700851018800BE510B419
:100CA0001006751700751800051085109930990207
:020CB000C299E7
:100CB200D007D006D005D004D003D002D001D00096
:0B0CC200D0D0D082D083D0F0D0E03240
:03000000020D8767
:0C0D8700787FE4F6D8FD758119020DCECE
:100D930002001BE493A3F8E493A34003F68001F25B
:100DA30008DFF48029E493A3F85407240CC8C33361
:100DB300C4540F4420C8834004F456800146F6DF30
:100DC300E4800B0102040810204080901066E47E4A
:100DD300019360BCA3FF543F30E509541FFEE49325
:100DE300A360010ECF54C025E060A840B8E493A3EC
:100DF300FAE493A3F8E493A3C8C582C8CAC583CA17
:100E0300F0A3C8C582C8CAC583CADFE9DEE780BECE
:011076000079
:00000001FF
