:0E172B007F407E42EF1FAC0670011E4C70F630
:01173900228D
:10000E00EF1FAA0670011E4A600A7D6FAC051DEC3B
:04001E0060EE80F818
:0100220022BB
:0800030012162F12090080FE05
:0417E4007590552285
:0C17AF0075905512172B7590FF02172B38
:1015E80075907E12172B7590C312172B7590E71202
:0815F800172BE4F59002172BFC
:10145700EF64014E70035390FEEF64024E70035326
:1014670090FDEF64034E70035390FBEF64044E70DE
:10147700035390F7EF64054E70035390EFEF640644
:101487004E70035390DFEF64074E70035390BFEF26
:0914970064084E700353907F229B
:1013BC00EE704CEF14B4080050459013D475F00344
:1013CC00A4C58325F0C583730213EC0213F002133A
:1013DC00F40213F80213FC021400021404021408A1
:1013EC00439001224390022243900422439008220E
:1013FC00439010224390202243904022439080221D
:100D0100E4F512F513C290D291D292D293D294D239
:100D110095D296D2977F1E7E0012000ED290C2917C
:100D2100D292D293D294D295D296D2977F1E7E0040
:100D310012000ED290D291C292D293D294D295D275
:100D410096D2977F1E7E0012000ED290D291D2923F
:100D5100C293D294D295D296D2977F1E7E00120072
:100D61000ED290D291D292D293C294D295D296D2EF
:100D7100977F1E7E0012000ED290D291D292D29312
:100D8100D294C295D296D2977F1E7E0012000ED2C7
:100D910090D291D292D293D294D295C296D2977F89
:100DA1001E7E0012000ED290D291D292D293D29492
:100DB100D295D296C2977F1E7E0012000E0513E5D2
:100DC1001370020512C39405E512648094805003E8
:100DD100020D06E4F512F513D290D291D292D2937C
:100DE100D294D295D296D2977FC87E0012000EC2BD
:100DF10090C291C292C293C294C295C296C2977F89
:100E0100C87E0012000E0513E51370020512C3948B
:090E110002E5126480948040BFE8
:010E1A0022B5
:10039400E4F512F513F512F513C290D291D292D26C
:1003A40093D294D295D296D2977F1E7E0012000EDD
:1003B400D290C291D292D293D294D295D296D2971D
:1003C4007F1E7E0012000ED290D291C292D293D29E
:1003D40094D295D296D2977F1E7E0012000ED290B0
:1003E400D291D292C293D294D295D296D2977F1EB2
:1003F4007E0012000ED290D291D292D293C294D2A5
:1004040095D296D2977F1E7E0012000ED290D29182
:10041400D292D293D294C295D296D2977F1E7E0066
:1004240012000ED290D291D292D293D294D295C28B
:1004340096D2977F1E7E0012000ED290D291D29255
:10044400D293D294D295D296C2977F1E7E00120088
:100454000E0513E51370020512C3940FE5126480B0
:100464009480500302039DE4F512F513D290D291C7
:10047400D292D293D294D295D296D2977FC87E004C
:1004840012000EC290C291C292C293C294C295C28B
:1004940096C2977FC87E0012000E0513E513700202
:1004A4000512C39405E5126480948040BFE4F512FC
:1004B400F513D290C291D292C293D294C295D2969D
:1004C400C2977FC87E0012000EC290D291C292D20F
:1004D40093C294D295C296D2977FC87E0012000E22
:1004E4000513E51370020512C39405E512648094A4
:1004F4008040BFE4F512F513C290D291D292D29308
:10050400D294D295D296C2977F647E0012000ED206
:1005140090C291D292D293D294D295C296D2977F1E
:10052400647E0012000ED290D291C292D293D294E1
:10053400C295D296D2977F647E0012000ED290D2DA
:1005440091D292C293C294D295D296D2977F647E6E
:100554000012000E0513E51370020512C39405E59D
:1005640012648094804091E4F512F513C290C29114
:10057400D292D293D294D295C296C2977F647E00CF
:1005840012000ED290C291C292D293D294C295C25A
:1005940096D2977F647E0012000ED290D291C292BE
:1005A400C293C294C295D296D2977F647E00120001
:1005B4000ED290D291D292C293C294D295D296D2B4
:1005C400977F647E0012000E0513E5137002051276
:0B05D400C39405E51264809480409100
:0105DF0022F9
:04173A000221000088
:10164500EF1FAA0670011E4A600A7D6FAC051DECEE
:0416550060EE80F8CB
:01165900226E
:0317E800C2A32277
:0317EB00D2A32264
:0317EE00B2A32281
:1016A700C2A3E4F5907FC8FE121645D2A37590FF3A
:0116B7002210
:1016B800C2A3120D01D2A37590FF7FE87E03021624
:0116C80045DC
:1014E800759003C2A37FC87E00121645E4F521F566
:1014F80022AF907801EF08800123D8FDF5907FC8CE
:101508007E001216450522E52270020521C39407C4
:10151800E5216480948040D9D2A37590FF7FE87E4E
:04152800030216455F
:1016C9007F057E0012000E20B00375905530B0FDE5
:0116D90022EE
:1016EB007F057E0012000E20B102C2A330B1FD2295
:1016FB007F057E0012000E20B202D2A330B2FD2273
:1016DA007F057E0012000E20B3037590FF30B3FD24
:0116EA0022DD
:10077700E4F52975B0FFC2B320B7137F14FE12004A
:100787000E30B7FD7F147E0012000E75291020B6BB
:10079700147F147E0012000E30B6FD7F147E001207
:1007A700000E75290F20B5147F147E0012000E303D
:1007B700B5FD7F147E0012000E75290E20B4147F3C
:1007C700147E0012000E30B4FD7F147E0012000E5E
:1007D70075290D75B0FFC2B220B7147F147E0012C1
:1007E700000E30B7FD7F147E0012000E75290C2015
:1007F700B6147F147E0012000E30B6FD7F147E0003
:1008070012000E75290B20B5147F147E0012000EFE
:1008170030B5FD7F147E0012000E75290A20B4142E
:100827007F147E0012000E30B4FD7F147E0012008C
:100837000E75290975B0FFC2B120B7147F147E0069
:1008470012000E30B7FD7F147E0012000E752908C6
:1008570020B6147F147E0012000E30B6FD7F147E82
:100867000012000E75290720B5147F147E001200B0
:100877000E30B5FD7F147E0012000E75290620B4D8
:10088700147F147E0012000E30B4FD7F147E001218
:10089700000E75290575B0FFC2B020B7147F147E0E
:1008A7000012000E30B7FD7F147E0012000E75296E
:1008B7000420B6147F147E0012000E30B6FD7F149C
:1008C7007E0012000E75290320B5147F147E0012D6
:1008D700000E30B5FD7F147E0012000E7529022030
:1008E700B4147F147E0012000E30B4FD7F147E0016
:0808F70012000E752901AF2962
:0108FF0022D6
:05002600E4F51AF51BD2
:10002B00120777751C008F1DE51D6401451C7014AC
:10003B00C2A37F2C7E0112000ED2A37F2C7E011255
:10004B00000E80DCE51D6402451C702DF51AF51BB6
:10005B00C3E51B9402E51A6480948050C3C2A37F4E
:10006B002C7E0112000ED2A37F2C7E0112000E05F6
:10007B001BE51B70DB051A80D7E51D6403451C705F
:10008B002DF51AF51BC3E51B9403E51A64809480C8
:10009B00508EC2A37F2C7E0112000ED2A37F2C7E2A
:1000AB000112000E051BE51B70DB051A80D7E51D41
:1000BB006404451C7030F51AF51BC3E51B9404E56D
:1000CB001A64809480400302002BC2A37F2C7E0114
:1000DB0012000ED2A37F2C7E0112000E051BE51B16
:1000EB0070D8051A80D4E51D6405451C7030F51ACF
:1000FB00F51BC3E51B9405E51A648094804003024D
:10010B00002BC2A37F2C7E0112000ED2A37F2C7E6C
:10011B000112000E051BE51B70D8051A80D4E51DD6
:10012B006406451C7030F51AF51BC3E51B9406E5F8
:10013B001A64809480400302002BC2A37F2C7E01A3
:10014B0012000ED2A37F2C7E0112000E051BE51BA5
:10015B0070D8051A80D4E51D6407451C7030F51A5C
:10016B00F51BC3E51B9407E51A64809480400302DA
:10017B00002BC2A37F2C7E0112000ED2A37F2C7EFC
:10018B000112000E051BE51B70D8051A80D4E51D66
:10019B006408451C7030F51AF51BC3E51B9408E584
:1001AB001A64809480400302002BC2A37F2C7E0133
:1001BB0012000ED2A37F2C7E0112000E051BE51B35
:1001CB0070D8051A80D4E51D6409451C7030F51AEA
:1001DB00F51BC3E51B9409E51A6480948040030268
:1001EB00002BC2A37F2C7E0112000ED2A37F2C7E8C
:1001FB000112000E051BE51B70D8051A80D4E51DF6
:10020B00640A451C7030F51AF51BC3E51B940AE50F
:10021B001A64809480400302002BC2A37F2C7E01C2
:10022B0012000ED2A37F2C7E0112000E051BE51BC4
:10023B0070D8051A80D4E51D640B451C7030F51A77
:10024B00F51BC3E51B940BE51A64809480400302F5
:10025B00002BC2A37F2C7E0112000ED2A37F2C7E1B
:10026B000112000E051BE51B70D8051A80D4E51D85
:10027B00640C451C7030F51AF51BC3E51B940CE59B
:10028B001A64809480400302002BC2A37F2C7E0152
:10029B0012000ED2A37F2C7E0112000E051BE51B54
:1002AB0070D8051A80D4E51D640D451C7030F51A05
:1002BB00F51BC3E51B940DE51A6480948040030283
:1002CB00002BC2A37F2C7E0112000ED2A37F2C7EAB
:1002DB000112000E051BE51B70D8051A80D4E51D15
:1002EB00640E451C7030F51AF51BC3E51B940EE527
:1002FB001A64809480400302002BC2A37F2C7E01E2
:10030B0012000ED2A37F2C7E0112000E051BE51BE3
:10031B0070D8051A80D4E51D640F451C7030F51A92
:10032B00F51BC3E51B940FE51A6480948040030210
:10033B00002BC2A37F2C7E0112000ED2A37F2C7E3A
:10034B000112000E051BE51B70D8051A80D4E51DA4
:10035B006410451C600302002BF51AF51BC3E51B4B
:10036B009410E51A64809480400302002BC2A37F93
:10037B002C7E0112000ED2A37F2C7E0112000E05E3
:09038B001BE51B70D8051A80D493
:101600003F065B4F666D7D077F6F777C395E797132
:081610007638373E735C4000A0
:1012E100D2A6758076C2A67580FFD2A77580FEC290
:1012F100A77F017E0012000ED2A6758079C2A67565
:1013010080FFD2A77580FDC2A77F017E0012000E6B
:10131100D2A6758038C2A67580FFD2A77580FBC2A0
:10132100A77F017E0012000ED2A6758038C2A67575
:1013310080FFD2A77580F7C2A77F017E0012000E41
:10134100D2A675803FC2A67580FFD2A77580EFC275
:08135100A77F017E0002000EDF
:100E1B00D2A6901602E493F580C2A67580FFD2A7E6
:100E2B007580FEC2A77F017E0012000ED2A690161F
:100E3B0000E493F580C2A67580FFD2A77580FDC232
:100E4B00A77F017E0012000ED2A6901600E493F548
:100E5B0080C2A67580FFD2A77580FBC2A77F017EDB
:100E6B000012000ED2A6901601E493F580C2A6756F
:100E7B0080FFD2A77580F7C2A77F017E0012000EFC
:100E8B00D2A6901600E493F580C2A67580FFD2A778
:100E9B007580EFC2A77F017E0012000ED2A69016BE
:100EAB0007E493F580C2A67580FFD2A77580DFC2D9
:100EBB00A77F017E0012000ED2A6901601E493F5D7
:100ECB0080C2A67580FFD2A77580BFC2A77F017EA7
:100EDB000012000ED2A6901603E493F580C2A675FD
:100EEB0080FFD2A775807FC2A77F017E0002000E14
:100EFB00D2A6901602E493F580C2A67580FFD2A706
:100F0B007580FEC2A77F017E0012000ED2A690163E
:100F1B0000E493F580C2A67580FFD2A77580FDC251
:100F2B00A77F017E0012000ED2A6901600E493F567
:100F3B0080C2A67580FFD2A77580FBC2A77F017EFA
:100F4B000012000ED2A6901600E493F580C2A6758F
:100F5B0080FFD2A77580F7C2A77F017E0012000E1B
:100F6B00D2A6901600E493F580C2A67580FFD2A797
:100F7B007580EFC2A77F017E0012000ED2A69016DD
:100F8B0002E493F580C2A67580FFD2A77580DFC2FD
:100F9B00A77F017E0012000ED2A6901601E493F5F6
:100FAB0080C2A67580FFD2A77580BFC2A77F017EC6
:100FBB000012000ED2A6901600E493F580C2A6751F
:100FCB0080FFD2A775807FC2A77F017E0002000E33
:100FDB00D2A6901617E493F580C2A67580FFD2A710
:100FEB007580FEC2A77F017E0012000ED2A690165E
:100FFB0017E493F580C2A67580FFD2A77580FDC25A
:10100B00A77F017E0012000ED2A6901617E493F56F
:10101B0080C2A67580FFD2A77580FBC2A77F017E19
:10102B000012000ED2A6901617E493F580C2A67597
:10103B0080FFD2A77580F7C2A77F017E0012000E3A
:10104B00D2A6901600E493F580C2A67580FFD2A7B6
:10105B007580EFC2A77F017E0012000ED2A69016FC
:10106B0002E493F580C2A67580FFD2A77580DFC21C
:10107B00A77F017E0012000ED2A6901603E493F513
:10108B0080C2A67580FFD2A77580BFC2A77F017EE5
:10109B000012000ED2A6901604E493F580C2A6753A
:1010AB0080FFD2A775807FC2A77F017E0002000E52
:1010BB00D2A6901617E493F580C2A67580FFD2A72F
:1010CB007580FEC2A77F017E0012000ED2A690167D
:1010DB0017E493F580C2A67580FFD2A77580FDC279
:1010EB00A77F017E0012000ED2A6901617E493F58F
:1010FB0080C2A67580FFD2A77580FBC2A77F017E39
:10110B000012000ED2A6901617E493F580C2A675B6
:10111B0080FFD2A77580F7C2A77F017E0012000E59
:10112B00D2A6901617E493F580C2A67580FFD2A7BE
:10113B007580EFC2A77F017E0012000ED2A690161B
:10114B0017E493F580C2A67580FFD2A77580DFC226
:10115B00A77F017E0012000ED2A6901617E493F51E
:10116B0080C2A67580FFD2A77580BFC2A77F017E04
:10117B000012000ED2A6901617E493F580C2A67546
:10118B0080FFD2A775807FC2A77F017E0002000E71
:0717CC00D2A0C2A2D2A522A7
:0717D300D2A4D2B7C2B62276
:0D174700D2A0C2A2D2A5D2A4D2B7C2B622AF
:0D175400D2A0D2A2C2A5D2A4C2B7D2B622A2
:0D176100D2A0C2A2C2A5D2A4D2B7C2B622A5
:0D176E00D2A0C2A2D2A5D2A4C2B7C2B62298
:0D177B00D2A0C2A2C2A5D2A4C2B7C2B6229B
:10119B00E4F523F52420B0187F057E0012000E2005
:1011AB00B0061217471217E430B00302124480F84E
:1011BB0020B1487F057E0012000E20B13912175462
:1011CB00C2A37F2C7E0112000ED2A37F2C7E0112B4
:1011DB00000EC2A37F2C7E0112000ED2A37F2C7EA9
:1011EB000112000EC2A37F2C7E0112000ED2A37F30
:1011FB002C7E0112000E20B14080FB20B2157F0522
:10120B007E0012000E20B20675230075240120B259
:10121B002880FB20B3237F057E0012000E20B3161F
:10122B00E4F523F5241210BB12177BC2A37FE87ED3
:10123B000312000ED2A330B3FDE5246401452360F5
:0A124B00030211A0120E1B0211A0F5
:04173E000225000080
:10168300758901E4F58A758CDCD28CC28DD2A9D21E
:02169300AF2284
:10140C00310032003300340035003600370038002C
:10141C003900300048454C4C4F00313233343536AE
:10142C000030323334006368696E61006769746838
:10143C0075623A6D616F6D616F3132340051513AA2
:0B144C0031323936313933323435008B
:04174200022700007A
:10162F00D2AFD2ACC29FD29ED29C758920758DFD50
:06163F00758BFDD28E2226
:0517DA00AE27AF28223C
:100900001217DAEF640A4E70061210BB1212E112CF
:1009100017DAEF640B4E70061210BB120E1B121783
:10092000DAEF640C4E70061210BB120EFB1217DACF
:10093000EF640D4E70061210BB120FDB1217DAEFC8
:10094000640E4E70061210BB120D011217DAEF641E
:100950000F4E70061210BB1203941217DAEF6416D2
:060960004E6003020A4490
:100966007BFF7A14790C8B0F8A10891112165A7F25
:10097600F47E0112000E7BFF7A14790E8B0F8A101B
:10098600891112165A7FF47E0112000E7BFF7A142B
:1009960079108B0F8A10891112165A7FF47E011274
:1009A600000E7BFF7A1479128B0F8A1089111216AA
:1009B6005A7FF47E0112000E7BFF7A1479148B0F96
:1009C6008A10891112165A7FF47E0112000E7BFFDF
:1009D6007A1479168B0F8A10891112165A7FF47EB3
:1009E6000112000E7BFF7A1479188B0F8A10891179
:1009F60012165A7FF47E0112000E7BFF7A14791AC2
:100A06008B0F8A10891112165A7FF47E0112000E7E
:100A16007BFF7A14791C8B0F8A10891112165A7F64
:100A2600F47E0112000E7BFF7A14791E8B0F8A105A
:0C0A3600891112165A7FF47E0112000E86
:100A420080311217DAEF4E700A7590FFD2A312109E
:100A5200BB80201217DAEF64174E70081217881243
:100A620017DF800F1217DAEF64184E70061217C4E0
:0D0A720012152C7F057E0012000E020900F7
:03002300020BC508
:100BC500C0E0C0F0C083C082C0D075D000C000C0F6
:0D0BD50001C002C003C004C005C006C00777
:100BE200750800209803020CE1C298859908E5086F
:100BF200B40105C2A3020CD6E508B402061217EB33
:100C0200020CD6E508B403061217E4020CD6E50876
:100C1200B404067590FF020CD6E508B40506121757
:100C220047020CD6E508B40606121754020CD6E5A4
:100C320008B40706121761020CD6E508B4080612BA
:100C4200176E020CD6E508B4090612177B020CD601
:100C5200E508C3940A400FE508D3940F500875279E
:0B0C620000850828806EE508B410082B
:060C6D007BFF7A147920E0
:070C7300803FE508B4110801
:060C7A007BFF7A147926CD
:070C80008032E508B4120800
:060C87007BFF7A14792DB9
:070C8D008025E508B41308FF
:060C94007BFF7A147932A7
:070C9A008018E508B41408FE
:060CA1007BFF7A14793894
:070CA700800BE508B41511F4
:0F0CAE007BFF7A1479498B098A0A890B12165A2F
:100CBD008017E508B41607752700F528800BE508A1
:100CCD00B4190675270075280075270085082805B5
:090CDD0008850899309902C299BA
:100CE600D007D006D005D004D003D002D001D00062
:0B0CF600D0D0D082D083D0F0D0E0320C
:101695007580FFC2B5D2B6D2B4AF80C2B4EF20E731
:0116A500F64E
:0116A6002221
:10170B00AE07121695C2B5C2B68E80D2B4C2B42241
:10171B00AE07121695D2B5C2B68E80D2B4C2B42221
:10161800AE07AC03ED6003430640430680AF0612F5
:07162800170BAF0402171BB2
:10156D008B128A138914ED600343074043078012E1
:10157D00170BAB12AA13A91412159E60130514E5CF
:10158D00147002051314F912159EFF12171B80E239
:01159D00222B
:10166F007F3812170B7F0C12170B7F0612170B7F89
:04167F000102170B42
:10165A00C2A6C2A712166FE4FDFF12156D7BFF0D1D
:05166A007F0A021618C2
:1005E00026202020202026102010208026203020A9
:1005F00030203910301030802620202020201C2070
:1006000020802B20262020202B1026102B80262017
:100610003020302039102610266040103910262056
:100620003020302039102610268026202B102B1049
:100630002B203010391026102B102B202B4040205F
:10064000201020102B102630308018201820262053
:100650002020204026202B20302030201C2020204D
:1006600020801C201C201C203020306039103010CD
:1006700020202B1026102B10261026102B102B803C
:100680001820182026202020206026102B20302023
:1006900030201C20202020802620301030103020D8
:1006A000392026102B102B202B40401040102010FA
:1006B00020102B102630308000301C1020401C10E1
:1006C000181020101C1018401C2020201C2018205E
:1006D0002080FF20301C10182015201C20202026F0
:1006E0004020202B20262020203080FF20201C109E
:1006F0001810202026202B2030202B4020201C10DA
:100700001810202026202B2030202B4020301C10B9
:10071000182015201C202020264020202B202620B9
:100720002020308020301C1020101C10202026207B
:100730002B2030202B4020151F0520101C102020BE
:1007400026202B2030202B4020301C101820152074
:100750001C202020264020202B2026202020303046
:1007600020301C1018401C20202026401360182028
:070770001540134018800042
:0D17880075890175A882758CD8758AEF22CD
:03000B000217BB1E
:0917BB00758CD8758AEF052A32FD
:1015C800E4FDFCC3ED9FEC9E5015E4FBFA0BBB0059
:0F15D800010AEB64034A70F50DBD00010C80E4BD
:0115E70022E1
:10135900E4F52AEF75F0D9A485F013F5140514E521
:1013690014AE13700205131424E0F58274053EF5DA
:1013790083E493F9B9FF0BC28C7F647E001215C810
:1013890080DBE97001220514E514AE137002051320
:101399001424E0F58274053EF583E493F512D28CAA
:1013A900B2A3E9FF7E001215C8E512B52AF2E4F5E9
:0313B9002A80AADD
:0517DF00E4FF021359B4
:100A7F00F2F3F5F5F6F7F8F9F9FAFAFBFBFCFCFCE3
:100A8F00FDFDFDFDFEFEFEFEFEFEFEFF42C117B6A2
:100A9F00D0D1B621E18CD868E95B8FEE446BB4F40A
:100AAF002D4777A2B6DAFA160502020602020502F0
:100ABF0002040202030202020202010206050106FB
:100ACF0001020203020201030207020206020303EC
:100ADF00020105020C0602020702020602020502CB
:100AEF0002040202030202020206060106070102C5
:100AFF0006010205010205020201020302020103BF
:100B0F00020C05020206020205020204020203029F
:100B1F00020202020102060501060102020302029D
:100B2F0001030207020202030301030106020C0183
:100B3F00030207020206020205020606020205026E
:100B4F000204020203020607010406010205010462
:100B5F0002020201020C0802020203020303020254
:100B6F000302080202060202070202060203030240
:100B7F000105020C08020202030203030202030230
:100B8F00080202060202070202050203030201061F
:100B9F00020C05020204020203020202020607010E
:100BAF000206010205010203020604020602020404
:060BBF0001020201020A1E
:03000B0002179544
:0D179500C28CB2A3851E8C851F8AD28C32B7
:0214A0008F14A7
:1014A200E4F515E515C395145039E4F519F518F569
:1014B20017F516E47FA07E0FFDFCAB19AA18A91739
:1014C200A816C31215B75017E5192401F519E4350A
:1014D20018F518E43517F517E43516F51680D40516
:0514E2001580C0C28C62
:0114E70022E2
:0D17A200851E8C851F8AD28CAF200214A0FA
:0817C400758901D2A9D2AF2200
:10152C00E4F513752001E5206036E513900AB893B5
:10153C0075F007A4FFE513900AB7932F14F51290DA
:10154C000A7F93F51EE512900A9B93F51FE5139005
:10155C000AB993F52074032513F5131217A280C64C
:01156C00225C
:0300000002125594
:0C125500787FE4F6D8FD75812A02129C17
:10159E00BB010689828A83E0225002E722BBFE024B
:0915AE00E32289828A83E493227E
:1015B700EB9FF5F0EA9E42F0E99D42F0E89C45F08A
:0115C7002201
:10126100020003E493A3F8E493A34003F68001F2A0
:1012710008DFF48029E493A3F85407240CC8C3338E
:10128100C4540F4420C8834004F456800146F6DF5D
:10129100E4800B010204081020408090173AE47E9C
:1012A100019360BCA3FF543F30E509541FFEE49352
:1012B100A360010ECF54C025E060A840B8E493A319
:1012C100FAE493A3F8E493A3C8C582C8CAC583CA44
:1012D100F0A3C8C582C8CAC583CADFE9DEE780BEFC
:0117460000A2
:00000001FF
